{
  "_format": "hh-sol-artifact-1",
  "contractName": "SimpleStorage",
  "sourceName": "contracts/SimpleStorage.sol",
  "abi": [
    {
      "anonymous": false,
      "inputs": [
        {
          "indexed": true,
          "internalType": "uint256",
          "name": "gameId",
          "type": "uint256"
        },
        {
          "indexed": false,
          "internalType": "address",
          "name": "player1",
          "type": "address"
        },
        {
          "indexed": false,
          "internalType": "address",
          "name": "player2",
          "type": "address"
        },
        {
          "indexed": false,
          "internalType": "string",
          "name": "move1",
          "type": "string"
        },
        {
          "indexed": false,
          "internalType": "string",
          "name": "move2",
          "type": "string"
        },
        {
          "indexed": false,
          "internalType": "string",
          "name": "winner",
          "type": "string"
        }
      ],
      "name": "GameResultStored",
      "type": "event"
    },
    {
      "inputs": [
        {
          "internalType": "uint256",
          "name": "",
          "type": "uint256"
        }
      ],
      "name": "gameResults",
      "outputs": [
        {
          "internalType": "address",
          "name": "player1",
          "type": "address"
        },
        {
          "internalType": "address",
          "name": "player2",
          "type": "address"
        },
        {
          "internalType": "string",
          "name": "move1",
          "type": "string"
        },
        {
          "internalType": "string",
          "name": "move2",
          "type": "string"
        },
        {
          "internalType": "string",
          "name": "winner",
          "type": "string"
        },
        {
          "internalType": "uint256",
          "name": "timestamp",
          "type": "uint256"
        }
      ],
      "stateMutability": "view",
      "type": "function"
    },
    {
      "inputs": [
        {
          "internalType": "uint256",
          "name": "_gameId",
          "type": "uint256"
        }
      ],
      "name": "getGameResult",
      "outputs": [
        {
          "internalType": "address",
          "name": "player1",
          "type": "address"
        },
        {
          "internalType": "address",
          "name": "player2",
          "type": "address"
        },
        {
          "internalType": "string",
          "name": "move1",
          "type": "string"
        },
        {
          "internalType": "string",
          "name": "move2",
          "type": "string"
        },
        {
          "internalType": "string",
          "name": "winner",
          "type": "string"
        },
        {
          "internalType": "uint256",
          "name": "timestamp",
          "type": "uint256"
        }
      ],
      "stateMutability": "view",
      "type": "function"
    },
    {
      "inputs": [],
      "name": "getGameResultsCount",
      "outputs": [
        {
          "internalType": "uint256",
          "name": "",
          "type": "uint256"
        }
      ],
      "stateMutability": "view",
      "type": "function"
    },
    {
      "inputs": [
        {
          "internalType": "address",
          "name": "_player1",
          "type": "address"
        },
        {
          "internalType": "address",
          "name": "_player2",
          "type": "address"
        },
        {
          "internalType": "string",
          "name": "_move1",
          "type": "string"
        },
        {
          "internalType": "string",
          "name": "_move2",
          "type": "string"
        },
        {
          "internalType": "string",
          "name": "_winner",
          "type": "string"
        }
      ],
      "name": "storeGameResult",
      "outputs": [
        {
          "internalType": "uint256",
          "name": "",
          "type": "uint256"
        }
      ],
      "stateMutability": "nonpayable",
      "type": "function"
    }
  ],
  "bytecode": "0x608060405234801561001057600080fd5b506110b5806100206000396000f3fe608060405234801561001057600080fd5b506004361061004c5760003560e01c80636358b847146100515780638f106e9614610081578063ed2df26d1461009f578063fdba1b7c146100d4575b600080fd5b61006b600480360381019061006691906109db565b610109565b6040516100789190610ac3565b60405180910390f35b6100896102d3565b6040516100969190610ac3565b60405180910390f35b6100b960048036038101906100b49190610b0a565b6102df565b6040516100cb96959493929190610bc5565b60405180910390f35b6100ee60048036038101906100e99190610b0a565b6105ff565b60405161010096959493929190610bc5565b60405180910390f35b6000806040518060c001604052808873ffffffffffffffffffffffffffffffffffffffff1681526020018773ffffffffffffffffffffffffffffffffffffffff168152602001868152602001858152602001848152602001428152509050600081908060018154018082558091505060019003906000526020600020906006020160009091909190915060008201518160000160006101000a81548173ffffffffffffffffffffffffffffffffffffffff021916908373ffffffffffffffffffffffffffffffffffffffff16021790555060208201518160010160006101000a81548173ffffffffffffffffffffffffffffffffffffffff021916908373ffffffffffffffffffffffffffffffffffffffff16021790555060408201518160020190816102369190610e47565b50606082015181600301908161024c9190610e47565b5060808201518160040190816102629190610e47565b5060a082015181600501555050600060016000805490506102839190610f48565b9050807fddcb44587982799d9d7f748ac824a5e4789eb01855efc22463a9aaf4fc317d1289898989896040516102bd959493929190610f7c565b60405180910390a2809250505095945050505050565b60008080549050905090565b600080606080606060008080549050871061032f576040517f08c379a000000000000000000000000000000000000000000000000000000000815260040161032690611030565b60405180910390fd5b600080888154811061034457610343611050565b5b90600052602060002090600602016040518060c00160405290816000820160009054906101000a900473ffffffffffffffffffffffffffffffffffffffff1673ffffffffffffffffffffffffffffffffffffffff1673ffffffffffffffffffffffffffffffffffffffff1681526020016001820160009054906101000a900473ffffffffffffffffffffffffffffffffffffffff1673ffffffffffffffffffffffffffffffffffffffff1673ffffffffffffffffffffffffffffffffffffffff16815260200160028201805461041990610c6a565b80601f016020809104026020016040519081016040528092919081815260200182805461044590610c6a565b80156104925780601f1061046757610100808354040283529160200191610492565b820191906000526020600020905b81548152906001019060200180831161047557829003601f168201915b505050505081526020016003820180546104ab90610c6a565b80601f01602080910402602001604051908101604052809291908181526020018280546104d790610c6a565b80156105245780601f106104f957610100808354040283529160200191610524565b820191906000526020600020905b81548152906001019060200180831161050757829003601f168201915b5050505050815260200160048201805461053d90610c6a565b80601f016020809104026020016040519081016040528092919081815260200182805461056990610c6a565b80156105b65780601f1061058b576101008083540402835291602001916105b6565b820191906000526020600020905b81548152906001019060200180831161059957829003601f168201915b505050505081526020016005820154815250509050806000015181602001518260400151836060015184608001518560a001519650965096509650965096505091939550919395565b6000818154811061060f57600080fd5b90600052602060002090600602016000915090508060000160009054906101000a900473ffffffffffffffffffffffffffffffffffffffff16908060010160009054906101000a900473ffffffffffffffffffffffffffffffffffffffff169080600201805461067e90610c6a565b80601f01602080910402602001604051908101604052809291908181526020018280546106aa90610c6a565b80156106f75780601f106106cc576101008083540402835291602001916106f7565b820191906000526020600020905b8154815290600101906020018083116106da57829003601f168201915b50505050509080600301805461070c90610c6a565b80601f016020809104026020016040519081016040528092919081815260200182805461073890610c6a565b80156107855780601f1061075a57610100808354040283529160200191610785565b820191906000526020600020905b81548152906001019060200180831161076857829003601f168201915b50505050509080600401805461079a90610c6a565b80601f01602080910402602001604051908101604052809291908181526020018280546107c690610c6a565b80156108135780601f106107e857610100808354040283529160200191610813565b820191906000526020600020905b8154815290600101906020018083116107f657829003601f168201915b5050505050908060050154905086565b6000604051905090565b600080fd5b600080fd5b600073ffffffffffffffffffffffffffffffffffffffff82169050919050565b600061086282610837565b9050919050565b61087281610857565b811461087d57600080fd5b50565b60008135905061088f81610869565b92915050565b600080fd5b600080fd5b6000601f19601f8301169050919050565b7f4e487b7100000000000000000000000000000000000000000000000000000000600052604160045260246000fd5b6108e88261089f565b810181811067ffffffffffffffff82111715610907576109066108b0565b5b80604052505050565b600061091a610823565b905061092682826108df565b919050565b600067ffffffffffffffff821115610946576109456108b0565b5b61094f8261089f565b9050602081019050919050565b82818337600083830152505050565b600061097e6109798461092b565b610910565b90508281526020810184848401111561099a5761099961089a565b5b6109a584828561095c565b509392505050565b600082601f8301126109c2576109c1610895565b5b81356109d284826020860161096b565b91505092915050565b600080600080600060a086880312156109f7576109f661082d565b5b6000610a0588828901610880565b9550506020610a1688828901610880565b945050604086013567ffffffffffffffff811115610a3757610a36610832565b5b610a43888289016109ad565b935050606086013567ffffffffffffffff811115610a6457610a63610832565b5b610a70888289016109ad565b925050608086013567ffffffffffffffff811115610a9157610a90610832565b5b610a9d888289016109ad565b9150509295509295909350565b6000819050919050565b610abd81610aaa565b82525050565b6000602082019050610ad86000830184610ab4565b92915050565b610ae781610aaa565b8114610af257600080fd5b50565b600081359050610b0481610ade565b92915050565b600060208284031215610b2057610b1f61082d565b5b6000610b2e84828501610af5565b91505092915050565b610b4081610857565b82525050565b600081519050919050565b600082825260208201905092915050565b60005b83811015610b80578082015181840152602081019050610b65565b60008484015250505050565b6000610b9782610b46565b610ba18185610b51565b9350610bb1818560208601610b62565b610bba8161089f565b840191505092915050565b600060c082019050610bda6000830189610b37565b610be76020830188610b37565b8181036040830152610bf98187610b8c565b90508181036060830152610c0d8186610b8c565b90508181036080830152610c218185610b8c565b9050610c3060a0830184610ab4565b979650505050505050565b7f4e487b7100000000000000000000000000000000000000000000000000000000600052602260045260246000fd5b60006002820490506001821680610c8257607f821691505b602082108103610c9557610c94610c3b565b5b50919050565b60008190508160005260206000209050919050565b60006020601f8301049050919050565b600082821b905092915050565b600060088302610cfd7fffffffffffffffffffffffffffffffffffffffffffffffffffffffffffffffff82610cc0565b610d078683610cc0565b95508019841693508086168417925050509392505050565b6000819050919050565b6000610d44610d3f610d3a84610aaa565b610d1f565b610aaa565b9050919050565b6000819050919050565b610d5e83610d29565b610d72610d6a82610d4b565b848454610ccd565b825550505050565b600090565b610d87610d7a565b610d92818484610d55565b505050565b5b81811015610db657610dab600082610d7f565b600181019050610d98565b5050565b601f821115610dfb57610dcc81610c9b565b610dd584610cb0565b81016020851015610de4578190505b610df8610df085610cb0565b830182610d97565b50505b505050565b600082821c905092915050565b6000610e1e60001984600802610e00565b1980831691505092915050565b6000610e378383610e0d565b9150826002028217905092915050565b610e5082610b46565b67ffffffffffffffff811115610e6957610e686108b0565b5b610e738254610c6a565b610e7e828285610dba565b600060209050601f831160018114610eb15760008415610e9f578287015190505b610ea98582610e2b565b865550610f11565b601f198416610ebf86610c9b565b60005b82811015610ee757848901518255600182019150602085019450602081019050610ec2565b86831015610f045784890151610f00601f891682610e0d565b8355505b6001600288020188555050505b505050505050565b7f4e487b7100000000000000000000000000000000000000000000000000000000600052601160045260246000fd5b6000610f5382610aaa565b9150610f5e83610aaa565b9250828203905081811115610f7657610f75610f19565b5b92915050565b600060a082019050610f916000830188610b37565b610f9e6020830187610b37565b8181036040830152610fb08186610b8c565b90508181036060830152610fc48185610b8c565b90508181036080830152610fd88184610b8c565b90509695505050505050565b7f47616d6520726573756c7420646f6573206e6f74206578697374000000000000600082015250565b600061101a601a83610b51565b915061102582610fe4565b602082019050919050565b600060208201905081810360008301526110498161100d565b9050919050565b7f4e487b7100000000000000000000000000000000000000000000000000000000600052603260045260246000fdfea2646970667358221220a7c83a4d77c29ae504731fc9b72fd4d3ae948086dff2f34f9b16f3eddacb61f464736f6c63430008180033",
  "linkReferences": {},
  "deployedLinkReferences": {}
}